{"contracts/PrivacyHTLC.sol":{"PrivacyHTLC":{"abi":[{"anonymous":false,"inputs":[{"indexed":true,"internalType":"bytes32","name":"_swapId","type":"bytes32"},{"indexed":true,"internalType":"address","name":"_initiator","type":"address"},{"indexed":true,"internalType":"address","name":"_participant","type":"address"},{"indexed":false,"internalType":"uint256","name":"_amount","type":"uint256"},{"indexed":false,"internalType":"bytes32","name":"_hashlock","type":"bytes32"},{"indexed":false,"internalType":"uint256","name":"_timelock","type":"uint256"},{"indexed":false,"internalType":"bytes32","name":"_commitment","type":"bytes32"}],"name":"NewSwap","type":"event"},{"anonymous":false,"inputs":[{"indexed":true,"internalType":"bytes32","name":"_swapId","type":"bytes32"}],"name":"Refunded","type":"event"},{"anonymous":false,"inputs":[{"indexed":true,"internalType":"bytes32","name":"_swapId","type":"bytes32"},{"indexed":false,"internalType":"bytes32","name":"_preimage","type":"bytes32"}],"name":"Withdrawn","type":"event"},{"inputs":[{"internalType":"address","name":"_participant","type":"address"},{"internalType":"bytes32","name":"_hashlock","type":"bytes32"},{"internalType":"uint256","name":"_timelock","type":"uint256"},{"internalType":"bytes32","name":"_commitment","type":"bytes32"},{"internalType":"bytes","name":"_zkProof","type":"bytes"}],"name":"createSwap","outputs":[{"internalType":"bytes32","name":"swapId","type":"bytes32"}],"stateMutability":"payable","type":"function"},{"inputs":[{"internalType":"bytes32","name":"_swapId","type":"bytes32"}],"name":"getSwap","outputs":[{"internalType":"address","name":"initiator","type":"address"},{"internalType":"address","name":"participant","type":"address"},{"internalType":"uint256","name":"amount","type":"uint256"},{"internalType":"bytes32","name":"hashlock","type":"bytes32"},{"internalType":"uint256","name":"timelock","type":"uint256"},{"internalType":"bool","name":"withdrawn","type":"bool"},{"internalType":"bool","name":"refunded","type":"bool"},{"internalType":"bytes32","name":"preimage","type":"bytes32"},{"internalType":"bytes32","name":"commitment","type":"bytes32"}],"stateMutability":"view","type":"function"},{"inputs":[{"internalType":"bytes32","name":"_swapId","type":"bytes32"}],"name":"refund","outputs":[],"stateMutability":"nonpayable","type":"function"},{"inputs":[{"internalType":"bytes32","name":"","type":"bytes32"}],"name":"swaps","outputs":[{"internalType":"address","name":"initiator","type":"address"},{"internalType":"address","name":"participant","type":"address"},{"internalType":"uint256","name":"amount","type":"uint256"},{"internalType":"bytes32","name":"hashlock","type":"bytes32"},{"internalType":"uint256","name":"timelock","type":"uint256"},{"internalType":"bool","name":"withdrawn","type":"bool"},{"internalType":"bool","name":"refunded","type":"bool"},{"internalType":"bytes32","name":"preimage","type":"bytes32"},{"internalType":"bytes32","name":"commitment","type":"bytes32"}],"stateMutability":"view","type":"function"},{"inputs":[{"internalType":"bytes32","name":"_swapId","type":"bytes32"},{"internalType":"bytes32","name":"_preimage","type":"bytes32"},{"internalType":"bytes","name":"_zkProof","type":"bytes"}],"name":"withdraw","outputs":[],"stateMutability":"nonpayable","type":"function"}],"evm":{"bytecode":{"linkReferences":{},"object":"608060405234801561001057600080fd5b50610cb5806100206000396000f3fe60806040526004361061004a5760003560e01c80632e7e2bc91461004f5780633da0e66e146100715780637249fbb6146101895780638b77c4d7146101a9578063eb84e7f2146101ca575b600080fd5b34801561005b57600080fd5b5061006f61006a366004610b94565b610241565b005b34801561007d57600080fd5b5061013161008c366004610be7565b6000908152602081815260409182902082516101208101845281546001600160a01b0390811680835260018401549091169382018490526002830154948201859052600383015460608301819052600484015460808401819052600585015460ff808216151560a0870181905261010092839004909116151560c08701819052600688015460e088018190526007909801549290960182905293989697969295919492565b604080516001600160a01b039a8b1681529990981660208a01529688019590955260608701939093526080860191909152151560a0850152151560c084015260e0830152610100820152610120015b60405180910390f35b34801561019557600080fd5b5061006f6101a4366004610be7565b610539565b6101bc6101b7366004610c00565b6107b0565b604051908152602001610180565b3480156101d657600080fd5b506101316101e5366004610be7565b600060208190529081526040902080546001820154600283015460038401546004850154600586015460068701546007909701546001600160a01b0396871697959096169593949293919260ff80831693610100909304169189565b6000848152602081905260409020600281015461029b5760405162461bcd60e51b815260206004820152601360248201527214ddd85c08191bd95cc81b9bdd08195e1a5cdd606a1b60448201526064015b60405180910390fd5b600581015460ff16156102e95760405162461bcd60e51b815260206004820152601660248201527529bbb0b81030b63932b0b23c903bb4ba34323930bbb760511b6044820152606401610292565b6005810154610100900460ff161561033b5760405162461bcd60e51b815260206004820152601560248201527414ddd85c08185b1c9958591e481c99599d5b991959605a1b6044820152606401610292565b60018101546001600160a01b031633146103975760405162461bcd60e51b815260206004820152601d60248201527f4f6e6c79207061727469636970616e742063616e2077697468647261770000006044820152606401610292565b428160040154116103d95760405162461bcd60e51b815260206004820152600c60248201526b14ddd85c08195e1c1a5c995960a21b6044820152606401610292565b600381015460408051602081018790520160405160208183030381529060405280519060200120146104405760405162461bcd60e51b815260206004820152601060248201526f496e76616c696420707265696d61676560801b6044820152606401610292565b60058101805460ff191660019081179091556006820185905581015460028201546040516000926001600160a01b031691908381818185875af1925050503d80600081146104aa576040519150601f19603f3d011682016040523d82523d6000602084013e6104af565b606091505b50509050806104f75760405162461bcd60e51b81526020600482015260146024820152732330b4b632b2103a379039b2b7321022ba3432b960611b6044820152606401610292565b857f62388c59a1deeef5c43bd1e453c09d8fd255c31f651700e1f606339958b88b1c8660405161052991815260200190565b60405180910390a2505050505050565b6000818152602081905260409020600281015461058e5760405162461bcd60e51b815260206004820152601360248201527214ddd85c08191bd95cc81b9bdd08195e1a5cdd606a1b6044820152606401610292565b600581015460ff16156105dc5760405162461bcd60e51b815260206004820152601660248201527529bbb0b81030b63932b0b23c903bb4ba34323930bbb760511b6044820152606401610292565b6005810154610100900460ff161561062e5760405162461bcd60e51b815260206004820152601560248201527414ddd85c08185b1c9958591e481c99599d5b991959605a1b6044820152606401610292565b80546001600160a01b031633146106875760405162461bcd60e51b815260206004820152601960248201527f4f6e6c7920696e69746961746f722063616e20726566756e64000000000000006044820152606401610292565b42816004015411156106d25760405162461bcd60e51b8152602060048201526014602482015273151a5b595b1bd8dac81b9bdd08195e1c1a5c995960621b6044820152606401610292565b60058101805461ff001916610100179055805460028201546040516000926001600160a01b031691908381818185875af1925050503d8060008114610733576040519150601f19603f3d011682016040523d82523d6000602084013e610738565b606091505b50509050806107805760405162461bcd60e51b81526020600482015260146024820152732330b4b632b2103a379039b2b7321022ba3432b960611b6044820152606401610292565b60405183907ffe509803c09416b28ff3d8f690c8b0c61462a892c46d5430c8fb20abe472daf090600090a2505050565b60008034116108015760405162461bcd60e51b815260206004820152601d60248201527f416d6f756e74206d7573742062652067726561746572207468616e20300000006044820152606401610292565b6001600160a01b0387166108575760405162461bcd60e51b815260206004820152601b60248201527f496e76616c6964207061727469636970616e74206164647265737300000000006044820152606401610292565b600086900361089b5760405162461bcd60e51b815260206004820152601060248201526f496e76616c696420686173686c6f636b60801b6044820152606401610292565b4285116108ea5760405162461bcd60e51b815260206004820152601e60248201527f54696d656c6f636b206d75737420626520696e207468652066757475726500006044820152606401610292565b6040516bffffffffffffffffffffffff1933606090811b8216602084015289901b166034820152346048820152606881018790526088810186905260a8810185905260c80160408051601f1981840301815291815281516020928301206000818152928390529120600201549091501561099c5760405162461bcd60e51b81526020600482015260136024820152725377617020616c72656164792065786973747360681b6044820152606401610292565b604051806101200160405280336001600160a01b03168152602001886001600160a01b031681526020013481526020018781526020018681526020016000151581526020016000151581526020016000801b81526020018581525060008083815260200190815260200160002060008201518160000160006101000a8154816001600160a01b0302191690836001600160a01b0316021790555060208201518160010160006101000a8154816001600160a01b0302191690836001600160a01b0316021790555060408201518160020155606082015181600301556080820151816004015560a08201518160050160006101000a81548160ff02191690831515021790555060c08201518160050160016101000a81548160ff02191690831515021790555060e082015181600601556101008201518160070155905050866001600160a01b0316336001600160a01b0316827fdc3982de88f0a151e08690c1a9788375bb6fd2d957bee70351243a050dcea696348a8a8a604051610b39949392919093845260208401929092526040830152606082015260800190565b60405180910390a49695505050505050565b60008083601f840112610b5d57600080fd5b50813567ffffffffffffffff811115610b7557600080fd5b602083019150836020828501011115610b8d57600080fd5b9250929050565b60008060008060608587031215610baa57600080fd5b8435935060208501359250604085013567ffffffffffffffff811115610bcf57600080fd5b610bdb87828801610b4b565b95989497509550505050565b600060208284031215610bf957600080fd5b5035919050565b60008060008060008060a08789031215610c1957600080fd5b86356001600160a01b0381168114610c3057600080fd5b9550602087013594506040870135935060608701359250608087013567ffffffffffffffff811115610c6157600080fd5b610c6d89828a01610b4b565b979a969950949750929593949250505056fea2646970667358221220dac315aea0502db6b93dececd41de3ff1a6e50a9d0e6bd7403fd0899fd82d14764736f6c63430008110033","opcodes":"PUSH1 0x80 PUSH1 0x40 MSTORE CALLVALUE DUP1 ISZERO PUSH2 0x10 JUMPI PUSH1 0x0 DUP1 REVERT JUMPDEST POP PUSH2 0xCB5 DUP1 PUSH2 0x20 PUSH1 0x0 CODECOPY PUSH1 0x0 RETURN INVALID PUSH1 0x80 PUSH1 0x40 MSTORE PUSH1 0x4 CALLDATASIZE LT PUSH2 0x4A JUMPI PUSH1 0x0 CALLDATALOAD PUSH1 0xE0 SHR DUP1 PUSH4 0x2E7E2BC9 EQ PUSH2 0x4F JUMPI DUP1 PUSH4 0x3DA0E66E EQ PUSH2 0x71 JUMPI DUP1 PUSH4 0x7249FBB6 EQ PUSH2 0x189 JUMPI DUP1 PUSH4 0x8B77C4D7 EQ PUSH2 0x1A9 JUMPI DUP1 PUSH4 0xEB84E7F2 EQ PUSH2 0x1CA JUMPI JUMPDEST PUSH1 0x0 DUP1 REVERT JUMPDEST CALLVALUE DUP1 ISZERO PUSH2 0x5B JUMPI PUSH1 0x0 DUP1 REVERT JUMPDEST POP PUSH2 0x6F PUSH2 0x6A CALLDATASIZE PUSH1 0x4 PUSH2 0xB94 JUMP JUMPDEST PUSH2 0x241 JUMP JUMPDEST STOP JUMPDEST CALLVALUE DUP1 ISZERO PUSH2 0x7D JUMPI PUSH1 0x0 DUP1 REVERT JUMPDEST POP PUSH2 0x131 PUSH2 0x8C CALLDATASIZE PUSH1 0x4 PUSH2 0xBE7 JUMP JUMPDEST PUSH1 0x0 SWAP1 DUP2 MSTORE PUSH1 0x20 DUP2 DUP2 MSTORE PUSH1 0x40 SWAP2 DUP3 SWAP1 KECCAK256 DUP3 MLOAD PUSH2 0x120 DUP2 ADD DUP5 MSTORE DUP2 SLOAD PUSH1 0x1 PUSH1 0x1 PUSH1 0xA0 SHL SUB SWAP1 DUP2 AND DUP1 DUP4 MSTORE PUSH1 0x1 DUP5 ADD SLOAD SWAP1 SWAP2 AND SWAP4 DUP3 ADD DUP5 SWAP1 MSTORE PUSH1 0x2 DUP4 ADD SLOAD SWAP5 DUP3 ADD DUP6 SWAP1 MSTORE PUSH1 0x3 DUP4 ADD SLOAD PUSH1 0x60 DUP4 ADD DUP2 SWAP1 MSTORE PUSH1 0x4 DUP5 ADD SLOAD PUSH1 0x80 DUP5 ADD DUP2 SWAP1 MSTORE PUSH1 0x5 DUP6 ADD SLOAD PUSH1 0xFF DUP1 DUP3 AND ISZERO ISZERO PUSH1 0xA0 DUP8 ADD DUP2 SWAP1 MSTORE PUSH2 0x100 SWAP3 DUP4 SWAP1 DIV SWAP1 SWAP2 AND ISZERO ISZERO PUSH1 0xC0 DUP8 ADD DUP2 SWAP1 MSTORE PUSH1 0x6 DUP9 ADD SLOAD PUSH1 0xE0 DUP9 ADD DUP2 SWAP1 MSTORE PUSH1 0x7 SWAP1 SWAP9 ADD SLOAD SWAP3 SWAP1 SWAP7 ADD DUP3 SWAP1 MSTORE SWAP4 SWAP9 SWAP7 SWAP8 SWAP7 SWAP3 SWAP6 SWAP2 SWAP5 SWAP3 JUMP JUMPDEST PUSH1 0x40 DUP1 MLOAD PUSH1 0x1 PUSH1 0x1 PUSH1 0xA0 SHL SUB SWAP11 DUP12 AND DUP2 MSTORE SWAP10 SWAP1 SWAP9 AND PUSH1 0x20 DUP11 ADD MSTORE SWAP7 DUP9 ADD SWAP6 SWAP1 SWAP6 MSTORE PUSH1 0x60 DUP8 ADD SWAP4 SWAP1 SWAP4 MSTORE PUSH1 0x80 DUP7 ADD SWAP2 SWAP1 SWAP2 MSTORE ISZERO ISZERO PUSH1 0xA0 DUP6 ADD MSTORE ISZERO ISZERO PUSH1 0xC0 DUP5 ADD MSTORE PUSH1 0xE0 DUP4 ADD MSTORE PUSH2 0x100 DUP3 ADD MSTORE PUSH2 0x120 ADD JUMPDEST PUSH1 0x40 MLOAD DUP1 SWAP2 SUB SWAP1 RETURN JUMPDEST CALLVALUE DUP1 ISZERO PUSH2 0x195 JUMPI PUSH1 0x0 DUP1 REVERT JUMPDEST POP PUSH2 0x6F PUSH2 0x1A4 CALLDATASIZE PUSH1 0x4 PUSH2 0xBE7 JUMP JUMPDEST PUSH2 0x539 JUMP JUMPDEST PUSH2 0x1BC PUSH2 0x1B7 CALLDATASIZE PUSH1 0x4 PUSH2 0xC00 JUMP JUMPDEST PUSH2 0x7B0 JUMP JUMPDEST PUSH1 0x40 MLOAD SWAP1 DUP2 MSTORE PUSH1 0x20 ADD PUSH2 0x180 JUMP JUMPDEST CALLVALUE DUP1 ISZERO PUSH2 0x1D6 JUMPI PUSH1 0x0 DUP1 REVERT JUMPDEST POP PUSH2 0x131 PUSH2 0x1E5 CALLDATASIZE PUSH1 0x4 PUSH2 0xBE7 JUMP JUMPDEST PUSH1 0x0 PUSH1 0x20 DUP2 SWAP1 MSTORE SWAP1 DUP2 MSTORE PUSH1 0x40 SWAP1 KECCAK256 DUP1 SLOAD PUSH1 0x1 DUP3 ADD SLOAD PUSH1 0x2 DUP4 ADD SLOAD PUSH1 0x3 DUP5 ADD SLOAD PUSH1 0x4 DUP6 ADD SLOAD PUSH1 0x5 DUP7 ADD SLOAD PUSH1 0x6 DUP8 ADD SLOAD PUSH1 0x7 SWAP1 SWAP8 ADD SLOAD PUSH1 0x1 PUSH1 0x1 PUSH1 0xA0 SHL SUB SWAP7 DUP8 AND SWAP8 SWAP6 SWAP1 SWAP7 AND SWAP6 SWAP4 SWAP5 SWAP3 SWAP4 SWAP2 SWAP3 PUSH1 0xFF DUP1 DUP4 AND SWAP4 PUSH2 0x100 SWAP1 SWAP4 DIV AND SWAP2 DUP10 JUMP JUMPDEST PUSH1 0x0 DUP5 DUP2 MSTORE PUSH1 0x20 DUP2 SWAP1 MSTORE PUSH1 0x40 SWAP1 KECCAK256 PUSH1 0x2 DUP2 ADD SLOAD PUSH2 0x29B JUMPI PUSH1 0x40 MLOAD PUSH3 0x461BCD PUSH1 0xE5 SHL DUP2 MSTORE PUSH1 0x20 PUSH1 0x4 DUP3 ADD MSTORE PUSH1 0x13 PUSH1 0x24 DUP3 ADD MSTORE PUSH19 0x14DDD85C08191BD95CC81B9BDD08195E1A5CDD PUSH1 0x6A SHL PUSH1 0x44 DUP3 ADD MSTORE PUSH1 0x64 ADD JUMPDEST PUSH1 0x40 MLOAD DUP1 SWAP2 SUB SWAP1 REVERT JUMPDEST PUSH1 0x5 DUP2 ADD SLOAD PUSH1 0xFF AND ISZERO PUSH2 0x2E9 JUMPI PUSH1 0x40 MLOAD PUSH3 0x461BCD PUSH1 0xE5 SHL DUP2 MSTORE PUSH1 0x20 PUSH1 0x4 DUP3 ADD MSTORE PUSH1 0x16 PUSH1 0x24 DUP3 ADD MSTORE PUSH22 0x29BBB0B81030B63932B0B23C903BB4BA34323930BBB7 PUSH1 0x51 SHL PUSH1 0x44 DUP3 ADD MSTORE PUSH1 0x64 ADD PUSH2 0x292 JUMP JUMPDEST PUSH1 0x5 DUP2 ADD SLOAD PUSH2 0x100 SWAP1 DIV PUSH1 0xFF AND ISZERO PUSH2 0x33B JUMPI PUSH1 0x40 MLOAD PUSH3 0x461BCD PUSH1 0xE5 SHL DUP2 MSTORE PUSH1 0x20 PUSH1 0x4 DUP3 ADD MSTORE PUSH1 0x15 PUSH1 0x24 DUP3 ADD MSTORE PUSH21 0x14DDD85C08185B1C9958591E481C99599D5B991959 PUSH1 0x5A SHL PUSH1 0x44 DUP3 ADD MSTORE PUSH1 0x64 ADD PUSH2 0x292 JUMP JUMPDEST PUSH1 0x1 DUP2 ADD SLOAD PUSH1 0x1 PUSH1 0x1 PUSH1 0xA0 SHL SUB AND CALLER EQ PUSH2 0x397 JUMPI PUSH1 0x40 MLOAD PUSH3 0x461BCD PUSH1 0xE5 SHL DUP2 MSTORE PUSH1 0x20 PUSH1 0x4 DUP3 ADD MSTORE PUSH1 0x1D PUSH1 0x24 DUP3 ADD MSTORE PUSH32 0x4F6E6C79207061727469636970616E742063616E207769746864726177000000 PUSH1 0x44 DUP3 ADD MSTORE PUSH1 0x64 ADD PUSH2 0x292 JUMP JUMPDEST TIMESTAMP DUP2 PUSH1 0x4 ADD SLOAD GT PUSH2 0x3D9 JUMPI PUSH1 0x40 MLOAD PUSH3 0x461BCD PUSH1 0xE5 SHL DUP2 MSTORE PUSH1 0x20 PUSH1 0x4 DUP3 ADD MSTORE PUSH1 0xC PUSH1 0x24 DUP3 ADD MSTORE PUSH12 0x14DDD85C08195E1C1A5C9959 PUSH1 0xA2 SHL PUSH1 0x44 DUP3 ADD MSTORE PUSH1 0x64 ADD PUSH2 0x292 JUMP JUMPDEST PUSH1 0x3 DUP2 ADD SLOAD PUSH1 0x40 DUP1 MLOAD PUSH1 0x20 DUP2 ADD DUP8 SWAP1 MSTORE ADD PUSH1 0x40 MLOAD PUSH1 0x20 DUP2 DUP4 SUB SUB DUP2 MSTORE SWAP1 PUSH1 0x40 MSTORE DUP1 MLOAD SWAP1 PUSH1 0x20 ADD KECCAK256 EQ PUSH2 0x440 JUMPI PUSH1 0x40 MLOAD PUSH3 0x461BCD PUSH1 0xE5 SHL DUP2 MSTORE PUSH1 0x20 PUSH1 0x4 DUP3 ADD MSTORE PUSH1 0x10 PUSH1 0x24 DUP3 ADD MSTORE PUSH16 0x496E76616C696420707265696D616765 PUSH1 0x80 SHL PUSH1 0x44 DUP3 ADD MSTORE PUSH1 0x64 ADD PUSH2 0x292 JUMP JUMPDEST PUSH1 0x5 DUP2 ADD DUP1 SLOAD PUSH1 0xFF NOT AND PUSH1 0x1 SWAP1 DUP2 OR SWAP1 SWAP2 SSTORE PUSH1 0x6 DUP3 ADD DUP6 SWAP1 SSTORE DUP2 ADD SLOAD PUSH1 0x2 DUP3 ADD SLOAD PUSH1 0x40 MLOAD PUSH1 0x0 SWAP3 PUSH1 0x1 PUSH1 0x1 PUSH1 0xA0 SHL SUB AND SWAP2 SWAP1 DUP4 DUP2 DUP2 DUP2 DUP6 DUP8 GAS CALL SWAP3 POP POP POP RETURNDATASIZE DUP1 PUSH1 0x0 DUP2 EQ PUSH2 0x4AA JUMPI PUSH1 0x40 MLOAD SWAP2 POP PUSH1 0x1F NOT PUSH1 0x3F RETURNDATASIZE ADD AND DUP3 ADD PUSH1 0x40 MSTORE RETURNDATASIZE DUP3 MSTORE RETURNDATASIZE PUSH1 0x0 PUSH1 0x20 DUP5 ADD RETURNDATACOPY PUSH2 0x4AF JUMP JUMPDEST PUSH1 0x60 SWAP2 POP JUMPDEST POP POP SWAP1 POP DUP1 PUSH2 0x4F7 JUMPI PUSH1 0x40 MLOAD PUSH3 0x461BCD PUSH1 0xE5 SHL DUP2 MSTORE PUSH1 0x20 PUSH1 0x4 DUP3 ADD MSTORE PUSH1 0x14 PUSH1 0x24 DUP3 ADD MSTORE PUSH20 0x2330B4B632B2103A379039B2B7321022BA3432B9 PUSH1 0x61 SHL PUSH1 0x44 DUP3 ADD MSTORE PUSH1 0x64 ADD PUSH2 0x292 JUMP JUMPDEST DUP6 PUSH32 0x62388C59A1DEEEF5C43BD1E453C09D8FD255C31F651700E1F606339958B88B1C DUP7 PUSH1 0x40 MLOAD PUSH2 0x529 SWAP2 DUP2 MSTORE PUSH1 0x20 ADD SWAP1 JUMP JUMPDEST PUSH1 0x40 MLOAD DUP1 SWAP2 SUB SWAP1 LOG2 POP POP POP POP POP POP JUMP JUMPDEST PUSH1 0x0 DUP2 DUP2 MSTORE PUSH1 0x20 DUP2 SWAP1 MSTORE PUSH1 0x40 SWAP1 KECCAK256 PUSH1 0x2 DUP2 ADD SLOAD PUSH2 0x58E JUMPI PUSH1 0x40 MLOAD PUSH3 0x461BCD PUSH1 0xE5 SHL DUP2 MSTORE PUSH1 0x20 PUSH1 0x4 DUP3 ADD MSTORE PUSH1 0x13 PUSH1 0x24 DUP3 ADD MSTORE PUSH19 0x14DDD85C08191BD95CC81B9BDD08195E1A5CDD PUSH1 0x6A SHL PUSH1 0x44 DUP3 ADD MSTORE PUSH1 0x64 ADD PUSH2 0x292 JUMP JUMPDEST PUSH1 0x5 DUP2 ADD SLOAD PUSH1 0xFF AND ISZERO PUSH2 0x5DC JUMPI PUSH1 0x40 MLOAD PUSH3 0x461BCD PUSH1 0xE5 SHL DUP2 MSTORE PUSH1 0x20 PUSH1 0x4 DUP3 ADD MSTORE PUSH1 0x16 PUSH1 0x24 DUP3 ADD MSTORE PUSH22 0x29BBB0B81030B63932B0B23C903BB4BA34323930BBB7 PUSH1 0x51 SHL PUSH1 0x44 DUP3 ADD MSTORE PUSH1 0x64 ADD PUSH2 0x292 JUMP JUMPDEST PUSH1 0x5 DUP2 ADD SLOAD PUSH2 0x100 SWAP1 DIV PUSH1 0xFF AND ISZERO PUSH2 0x62E JUMPI PUSH1 0x40 MLOAD PUSH3 0x461BCD PUSH1 0xE5 SHL DUP2 MSTORE PUSH1 0x20 PUSH1 0x4 DUP3 ADD MSTORE PUSH1 0x15 PUSH1 0x24 DUP3 ADD MSTORE PUSH21 0x14DDD85C08185B1C9958591E481C99599D5B991959 PUSH1 0x5A SHL PUSH1 0x44 DUP3 ADD MSTORE PUSH1 0x64 ADD PUSH2 0x292 JUMP JUMPDEST DUP1 SLOAD PUSH1 0x1 PUSH1 0x1 PUSH1 0xA0 SHL SUB AND CALLER EQ PUSH2 0x687 JUMPI PUSH1 0x40 MLOAD PUSH3 0x461BCD PUSH1 0xE5 SHL DUP2 MSTORE PUSH1 0x20 PUSH1 0x4 DUP3 ADD MSTORE PUSH1 0x19 PUSH1 0x24 DUP3 ADD MSTORE PUSH32 0x4F6E6C7920696E69746961746F722063616E20726566756E6400000000000000 PUSH1 0x44 DUP3 ADD MSTORE PUSH1 0x64 ADD PUSH2 0x292 JUMP JUMPDEST TIMESTAMP DUP2 PUSH1 0x4 ADD SLOAD GT ISZERO PUSH2 0x6D2 JUMPI PUSH1 0x40 MLOAD PUSH3 0x461BCD PUSH1 0xE5 SHL DUP2 MSTORE PUSH1 0x20 PUSH1 0x4 DUP3 ADD MSTORE PUSH1 0x14 PUSH1 0x24 DUP3 ADD MSTORE PUSH20 0x151A5B595B1BD8DAC81B9BDD08195E1C1A5C9959 PUSH1 0x62 SHL PUSH1 0x44 DUP3 ADD MSTORE PUSH1 0x64 ADD PUSH2 0x292 JUMP JUMPDEST PUSH1 0x5 DUP2 ADD DUP1 SLOAD PUSH2 0xFF00 NOT AND PUSH2 0x100 OR SWAP1 SSTORE DUP1 SLOAD PUSH1 0x2 DUP3 ADD SLOAD PUSH1 0x40 MLOAD PUSH1 0x0 SWAP3 PUSH1 0x1 PUSH1 0x1 PUSH1 0xA0 SHL SUB AND SWAP2 SWAP1 DUP4 DUP2 DUP2 DUP2 DUP6 DUP8 GAS CALL SWAP3 POP POP POP RETURNDATASIZE DUP1 PUSH1 0x0 DUP2 EQ PUSH2 0x733 JUMPI PUSH1 0x40 MLOAD SWAP2 POP PUSH1 0x1F NOT PUSH1 0x3F RETURNDATASIZE ADD AND DUP3 ADD PUSH1 0x40 MSTORE RETURNDATASIZE DUP3 MSTORE RETURNDATASIZE PUSH1 0x0 PUSH1 0x20 DUP5 ADD RETURNDATACOPY PUSH2 0x738 JUMP JUMPDEST PUSH1 0x60 SWAP2 POP JUMPDEST POP POP SWAP1 POP DUP1 PUSH2 0x780 JUMPI PUSH1 0x40 MLOAD PUSH3 0x461BCD PUSH1 0xE5 SHL DUP2 MSTORE PUSH1 0x20 PUSH1 0x4 DUP3 ADD MSTORE PUSH1 0x14 PUSH1 0x24 DUP3 ADD MSTORE PUSH20 0x2330B4B632B2103A379039B2B7321022BA3432B9 PUSH1 0x61 SHL PUSH1 0x44 DUP3 ADD MSTORE PUSH1 0x64 ADD PUSH2 0x292 JUMP JUMPDEST PUSH1 0x40 MLOAD DUP4 SWAP1 PUSH32 0xFE509803C09416B28FF3D8F690C8B0C61462A892C46D5430C8FB20ABE472DAF0 SWAP1 PUSH1 0x0 SWAP1 LOG2 POP POP POP JUMP JUMPDEST PUSH1 0x0 DUP1 CALLVALUE GT PUSH2 0x801 JUMPI PUSH1 0x40 MLOAD PUSH3 0x461BCD PUSH1 0xE5 SHL DUP2 MSTORE PUSH1 0x20 PUSH1 0x4 DUP3 ADD MSTORE PUSH1 0x1D PUSH1 0x24 DUP3 ADD MSTORE PUSH32 0x416D6F756E74206D7573742062652067726561746572207468616E2030000000 PUSH1 0x44 DUP3 ADD MSTORE PUSH1 0x64 ADD PUSH2 0x292 JUMP JUMPDEST PUSH1 0x1 PUSH1 0x1 PUSH1 0xA0 SHL SUB DUP8 AND PUSH2 0x857 JUMPI PUSH1 0x40 MLOAD PUSH3 0x461BCD PUSH1 0xE5 SHL DUP2 MSTORE PUSH1 0x20 PUSH1 0x4 DUP3 ADD MSTORE PUSH1 0x1B PUSH1 0x24 DUP3 ADD MSTORE PUSH32 0x496E76616C6964207061727469636970616E7420616464726573730000000000 PUSH1 0x44 DUP3 ADD MSTORE PUSH1 0x64 ADD PUSH2 0x292 JUMP JUMPDEST PUSH1 0x0 DUP7 SWAP1 SUB PUSH2 0x89B JUMPI PUSH1 0x40 MLOAD PUSH3 0x461BCD PUSH1 0xE5 SHL DUP2 MSTORE PUSH1 0x20 PUSH1 0x4 DUP3 ADD MSTORE PUSH1 0x10 PUSH1 0x24 DUP3 ADD MSTORE PUSH16 0x496E76616C696420686173686C6F636B PUSH1 0x80 SHL PUSH1 0x44 DUP3 ADD MSTORE PUSH1 0x64 ADD PUSH2 0x292 JUMP JUMPDEST TIMESTAMP DUP6 GT PUSH2 0x8EA JUMPI PUSH1 0x40 MLOAD PUSH3 0x461BCD PUSH1 0xE5 SHL DUP2 MSTORE PUSH1 0x20 PUSH1 0x4 DUP3 ADD MSTORE PUSH1 0x1E PUSH1 0x24 DUP3 ADD MSTORE PUSH32 0x54696D656C6F636B206D75737420626520696E20746865206675747572650000 PUSH1 0x44 DUP3 ADD MSTORE PUSH1 0x64 ADD PUSH2 0x292 JUMP JUMPDEST PUSH1 0x40 MLOAD PUSH12 0xFFFFFFFFFFFFFFFFFFFFFFFF NOT CALLER PUSH1 0x60 SWAP1 DUP2 SHL DUP3 AND PUSH1 0x20 DUP5 ADD MSTORE DUP10 SWAP1 SHL AND PUSH1 0x34 DUP3 ADD MSTORE CALLVALUE PUSH1 0x48 DUP3 ADD MSTORE PUSH1 0x68 DUP2 ADD DUP8 SWAP1 MSTORE PUSH1 0x88 DUP2 ADD DUP7 SWAP1 MSTORE PUSH1 0xA8 DUP2 ADD DUP6 SWAP1 MSTORE PUSH1 0xC8 ADD PUSH1 0x40 DUP1 MLOAD PUSH1 0x1F NOT DUP2 DUP5 SUB ADD DUP2 MSTORE SWAP2 DUP2 MSTORE DUP2 MLOAD PUSH1 0x20 SWAP3 DUP4 ADD KECCAK256 PUSH1 0x0 DUP2 DUP2 MSTORE SWAP3 DUP4 SWAP1 MSTORE SWAP2 KECCAK256 PUSH1 0x2 ADD SLOAD SWAP1 SWAP2 POP ISZERO PUSH2 0x99C JUMPI PUSH1 0x40 MLOAD PUSH3 0x461BCD PUSH1 0xE5 SHL DUP2 MSTORE PUSH1 0x20 PUSH1 0x4 DUP3 ADD MSTORE PUSH1 0x13 PUSH1 0x24 DUP3 ADD MSTORE PUSH19 0x5377617020616C726561647920657869737473 PUSH1 0x68 SHL PUSH1 0x44 DUP3 ADD MSTORE PUSH1 0x64 ADD PUSH2 0x292 JUMP JUMPDEST PUSH1 0x40 MLOAD DUP1 PUSH2 0x120 ADD PUSH1 0x40 MSTORE DUP1 CALLER PUSH1 0x1 PUSH1 0x1 PUSH1 0xA0 SHL SUB AND DUP2 MSTORE PUSH1 0x20 ADD DUP9 PUSH1 0x1 PUSH1 0x1 PUSH1 0xA0 SHL SUB AND DUP2 MSTORE PUSH1 0x20 ADD CALLVALUE DUP2 MSTORE PUSH1 0x20 ADD DUP8 DUP2 MSTORE PUSH1 0x20 ADD DUP7 DUP2 MSTORE PUSH1 0x20 ADD PUSH1 0x0 ISZERO ISZERO DUP2 MSTORE PUSH1 0x20 ADD PUSH1 0x0 ISZERO ISZERO DUP2 MSTORE PUSH1 0x20 ADD PUSH1 0x0 DUP1 SHL DUP2 MSTORE PUSH1 0x20 ADD DUP6 DUP2 MSTORE POP PUSH1 0x0 DUP1 DUP4 DUP2 MSTORE PUSH1 0x20 ADD SWAP1 DUP2 MSTORE PUSH1 0x20 ADD PUSH1 0x0 KECCAK256 PUSH1 0x0 DUP3 ADD MLOAD DUP2 PUSH1 0x0 ADD PUSH1 0x0 PUSH2 0x100 EXP DUP2 SLOAD DUP2 PUSH1 0x1 PUSH1 0x1 PUSH1 0xA0 SHL SUB MUL NOT AND SWAP1 DUP4 PUSH1 0x1 PUSH1 0x1 PUSH1 0xA0 SHL SUB AND MUL OR SWAP1 SSTORE POP PUSH1 0x20 DUP3 ADD MLOAD DUP2 PUSH1 0x1 ADD PUSH1 0x0 PUSH2 0x100 EXP DUP2 SLOAD DUP2 PUSH1 0x1 PUSH1 0x1 PUSH1 0xA0 SHL SUB MUL NOT AND SWAP1 DUP4 PUSH1 0x1 PUSH1 0x1 PUSH1 0xA0 SHL SUB AND MUL OR SWAP1 SSTORE POP PUSH1 0x40 DUP3 ADD MLOAD DUP2 PUSH1 0x2 ADD SSTORE PUSH1 0x60 DUP3 ADD MLOAD DUP2 PUSH1 0x3 ADD SSTORE PUSH1 0x80 DUP3 ADD MLOAD DUP2 PUSH1 0x4 ADD SSTORE PUSH1 0xA0 DUP3 ADD MLOAD DUP2 PUSH1 0x5 ADD PUSH1 0x0 PUSH2 0x100 EXP DUP2 SLOAD DUP2 PUSH1 0xFF MUL NOT AND SWAP1 DUP4 ISZERO ISZERO MUL OR SWAP1 SSTORE POP PUSH1 0xC0 DUP3 ADD MLOAD DUP2 PUSH1 0x5 ADD PUSH1 0x1 PUSH2 0x100 EXP DUP2 SLOAD DUP2 PUSH1 0xFF MUL NOT AND SWAP1 DUP4 ISZERO ISZERO MUL OR SWAP1 SSTORE POP PUSH1 0xE0 DUP3 ADD MLOAD DUP2 PUSH1 0x6 ADD SSTORE PUSH2 0x100 DUP3 ADD MLOAD DUP2 PUSH1 0x7 ADD SSTORE SWAP1 POP POP DUP7 PUSH1 0x1 PUSH1 0x1 PUSH1 0xA0 SHL SUB AND CALLER PUSH1 0x1 PUSH1 0x1 PUSH1 0xA0 SHL SUB AND DUP3 PUSH32 0xDC3982DE88F0A151E08690C1A9788375BB6FD2D957BEE70351243A050DCEA696 CALLVALUE DUP11 DUP11 DUP11 PUSH1 0x40 MLOAD PUSH2 0xB39 SWAP5 SWAP4 SWAP3 SWAP2 SWAP1 SWAP4 DUP5 MSTORE PUSH1 0x20 DUP5 ADD SWAP3 SWAP1 SWAP3 MSTORE PUSH1 0x40 DUP4 ADD MSTORE PUSH1 0x60 DUP3 ADD MSTORE PUSH1 0x80 ADD SWAP1 JUMP JUMPDEST PUSH1 0x40 MLOAD DUP1 SWAP2 SUB SWAP1 LOG4 SWAP7 SWAP6 POP POP POP POP POP POP JUMP JUMPDEST PUSH1 0x0 DUP1 DUP4 PUSH1 0x1F DUP5 ADD SLT PUSH2 0xB5D JUMPI PUSH1 0x0 DUP1 REVERT JUMPDEST POP DUP2 CALLDATALOAD PUSH8 0xFFFFFFFFFFFFFFFF DUP2 GT ISZERO PUSH2 0xB75 JUMPI PUSH1 0x0 DUP1 REVERT JUMPDEST PUSH1 0x20 DUP4 ADD SWAP2 POP DUP4 PUSH1 0x20 DUP3 DUP6 ADD ADD GT ISZERO PUSH2 0xB8D JUMPI PUSH1 0x0 DUP1 REVERT JUMPDEST SWAP3 POP SWAP3 SWAP1 POP JUMP JUMPDEST PUSH1 0x0 DUP1 PUSH1 0x0 DUP1 PUSH1 0x60 DUP6 DUP8 SUB SLT ISZERO PUSH2 0xBAA JUMPI PUSH1 0x0 DUP1 REVERT JUMPDEST DUP5 CALLDATALOAD SWAP4 POP PUSH1 0x20 DUP6 ADD CALLDATALOAD SWAP3 POP PUSH1 0x40 DUP6 ADD CALLDATALOAD PUSH8 0xFFFFFFFFFFFFFFFF DUP2 GT ISZERO PUSH2 0xBCF JUMPI PUSH1 0x0 DUP1 REVERT JUMPDEST PUSH2 0xBDB DUP8 DUP3 DUP9 ADD PUSH2 0xB4B JUMP JUMPDEST SWAP6 SWAP9 SWAP5 SWAP8 POP SWAP6 POP POP POP POP JUMP JUMPDEST PUSH1 0x0 PUSH1 0x20 DUP3 DUP5 SUB SLT ISZERO PUSH2 0xBF9 JUMPI PUSH1 0x0 DUP1 REVERT JUMPDEST POP CALLDATALOAD SWAP2 SWAP1 POP JUMP JUMPDEST PUSH1 0x0 DUP1 PUSH1 0x0 DUP1 PUSH1 0x0 DUP1 PUSH1 0xA0 DUP8 DUP10 SUB SLT ISZERO PUSH2 0xC19 JUMPI PUSH1 0x0 DUP1 REVERT JUMPDEST DUP7 CALLDATALOAD PUSH1 0x1 PUSH1 0x1 PUSH1 0xA0 SHL SUB DUP2 AND DUP2 EQ PUSH2 0xC30 JUMPI PUSH1 0x0 DUP1 REVERT JUMPDEST SWAP6 POP PUSH1 0x20 DUP8 ADD CALLDATALOAD SWAP5 POP PUSH1 0x40 DUP8 ADD CALLDATALOAD SWAP4 POP PUSH1 0x60 DUP8 ADD CALLDATALOAD SWAP3 POP PUSH1 0x80 DUP8 ADD CALLDATALOAD PUSH8 0xFFFFFFFFFFFFFFFF DUP2 GT ISZERO PUSH2 0xC61 JUMPI PUSH1 0x0 DUP1 REVERT JUMPDEST PUSH2 0xC6D DUP10 DUP3 DUP11 ADD PUSH2 0xB4B JUMP JUMPDEST SWAP8 SWAP11 SWAP7 SWAP10 POP SWAP5 SWAP8 POP SWAP3 SWAP6 SWAP4 SWAP5 SWAP3 POP POP POP JUMP INVALID LOG2 PUSH5 0x6970667358 0x22 SLT KECCAK256 0xDA 0xC3 ISZERO 0xAE LOG0 POP 0x2D 0xB6 0xB9 RETURNDATASIZE 0xEC 0xEC 0xD4 SAR 0xE3 SELFDESTRUCT BYTE PUSH15 0x50A9D0E6BD7403FD0899FD82D14764 PUSH20 0x6F6C634300081100330000000000000000000000 "},"methodIdentifiers":{"createSwap(address,bytes32,uint256,bytes32,bytes)":"8b77c4d7","getSwap(bytes32)":"3da0e66e","refund(bytes32)":"7249fbb6","swaps(bytes32)":"eb84e7f2","withdraw(bytes32,bytes32,bytes)":"2e7e2bc9"}}}}}