{
  "_format": "hh-sol-artifact-1",
  "contractName": "PrivacyHTLC",
  "sourceName": "contracts/PrivacyHTLC.sol",
  "abi": [
    {
      "anonymous": false,
      "inputs": [
        {
          "indexed": true,
          "internalType": "bytes32",
          "name": "_swapId",
          "type": "bytes32"
        },
        {
          "indexed": true,
          "internalType": "address",
          "name": "_initiator",
          "type": "address"
        },
        {
          "indexed": true,
          "internalType": "address",
          "name": "_participant",
          "type": "address"
        },
        {
          "indexed": false,
          "internalType": "uint256",
          "name": "_amount",
          "type": "uint256"
        },
        {
          "indexed": false,
          "internalType": "bytes32",
          "name": "_hashlock",
          "type": "bytes32"
        },
        {
          "indexed": false,
          "internalType": "uint256",
          "name": "_timelock",
          "type": "uint256"
        },
        {
          "indexed": false,
          "internalType": "bytes32",
          "name": "_commitment",
          "type": "bytes32"
        }
      ],
      "name": "NewSwap",
      "type": "event"
    },
    {
      "anonymous": false,
      "inputs": [
        {
          "indexed": true,
          "internalType": "bytes32",
          "name": "_swapId",
          "type": "bytes32"
        }
      ],
      "name": "Refunded",
      "type": "event"
    },
    {
      "anonymous": false,
      "inputs": [
        {
          "indexed": true,
          "internalType": "bytes32",
          "name": "_swapId",
          "type": "bytes32"
        },
        {
          "indexed": false,
          "internalType": "bytes32",
          "name": "_preimage",
          "type": "bytes32"
        }
      ],
      "name": "Withdrawn",
      "type": "event"
    },
    {
      "inputs": [
        {
          "internalType": "address",
          "name": "_participant",
          "type": "address"
        },
        {
          "internalType": "bytes32",
          "name": "_hashlock",
          "type": "bytes32"
        },
        {
          "internalType": "uint256",
          "name": "_timelock",
          "type": "uint256"
        },
        {
          "internalType": "bytes32",
          "name": "_commitment",
          "type": "bytes32"
        },
        {
          "internalType": "bytes",
          "name": "_zkProof",
          "type": "bytes"
        }
      ],
      "name": "createSwap",
      "outputs": [
        {
          "internalType": "bytes32",
          "name": "swapId",
          "type": "bytes32"
        }
      ],
      "stateMutability": "payable",
      "type": "function"
    },
    {
      "inputs": [
        {
          "internalType": "bytes32",
          "name": "_swapId",
          "type": "bytes32"
        }
      ],
      "name": "getSwap",
      "outputs": [
        {
          "internalType": "address",
          "name": "initiator",
          "type": "address"
        },
        {
          "internalType": "address",
          "name": "participant",
          "type": "address"
        },
        {
          "internalType": "uint256",
          "name": "amount",
          "type": "uint256"
        },
        {
          "internalType": "bytes32",
          "name": "hashlock",
          "type": "bytes32"
        },
        {
          "internalType": "uint256",
          "name": "timelock",
          "type": "uint256"
        },
        {
          "internalType": "bool",
          "name": "withdrawn",
          "type": "bool"
        },
        {
          "internalType": "bool",
          "name": "refunded",
          "type": "bool"
        },
        {
          "internalType": "bytes32",
          "name": "preimage",
          "type": "bytes32"
        },
        {
          "internalType": "bytes32",
          "name": "commitment",
          "type": "bytes32"
        }
      ],
      "stateMutability": "view",
      "type": "function"
    },
    {
      "inputs": [
        {
          "internalType": "bytes32",
          "name": "_swapId",
          "type": "bytes32"
        }
      ],
      "name": "refund",
      "outputs": [],
      "stateMutability": "nonpayable",
      "type": "function"
    },
    {
      "inputs": [
        {
          "internalType": "bytes32",
          "name": "",
          "type": "bytes32"
        }
      ],
      "name": "swaps",
      "outputs": [
        {
          "internalType": "address",
          "name": "initiator",
          "type": "address"
        },
        {
          "internalType": "address",
          "name": "participant",
          "type": "address"
        },
        {
          "internalType": "uint256",
          "name": "amount",
          "type": "uint256"
        },
        {
          "internalType": "bytes32",
          "name": "hashlock",
          "type": "bytes32"
        },
        {
          "internalType": "uint256",
          "name": "timelock",
          "type": "uint256"
        },
        {
          "internalType": "bool",
          "name": "withdrawn",
          "type": "bool"
        },
        {
          "internalType": "bool",
          "name": "refunded",
          "type": "bool"
        },
        {
          "internalType": "bytes32",
          "name": "preimage",
          "type": "bytes32"
        },
        {
          "internalType": "bytes32",
          "name": "commitment",
          "type": "bytes32"
        }
      ],
      "stateMutability": "view",
      "type": "function"
    },
    {
      "inputs": [
        {
          "internalType": "bytes32",
          "name": "_swapId",
          "type": "bytes32"
        },
        {
          "internalType": "bytes32",
          "name": "_preimage",
          "type": "bytes32"
        },
        {
          "internalType": "bytes",
          "name": "_zkProof",
          "type": "bytes"
        }
      ],
      "name": "withdraw",
      "outputs": [],
      "stateMutability": "nonpayable",
      "type": "function"
    }
  ],
  "bytecode": "0x608060405234801561001057600080fd5b50610cb5806100206000396000f3fe60806040526004361061004a5760003560e01c80632e7e2bc91461004f5780633da0e66e146100715780637249fbb6146101895780638b77c4d7146101a9578063eb84e7f2146101ca575b600080fd5b34801561005b57600080fd5b5061006f61006a366004610b94565b610241565b005b34801561007d57600080fd5b5061013161008c366004610be7565b6000908152602081815260409182902082516101208101845281546001600160a01b0390811680835260018401549091169382018490526002830154948201859052600383015460608301819052600484015460808401819052600585015460ff808216151560a0870181905261010092839004909116151560c08701819052600688015460e088018190526007909801549290960182905293989697969295919492565b604080516001600160a01b039a8b1681529990981660208a01529688019590955260608701939093526080860191909152151560a0850152151560c084015260e0830152610100820152610120015b60405180910390f35b34801561019557600080fd5b5061006f6101a4366004610be7565b610539565b6101bc6101b7366004610c00565b6107b0565b604051908152602001610180565b3480156101d657600080fd5b506101316101e5366004610be7565b600060208190529081526040902080546001820154600283015460038401546004850154600586015460068701546007909701546001600160a01b0396871697959096169593949293919260ff80831693610100909304169189565b6000848152602081905260409020600281015461029b5760405162461bcd60e51b815260206004820152601360248201527214ddd85c08191bd95cc81b9bdd08195e1a5cdd606a1b60448201526064015b60405180910390fd5b600581015460ff16156102e95760405162461bcd60e51b815260206004820152601660248201527529bbb0b81030b63932b0b23c903bb4ba34323930bbb760511b6044820152606401610292565b6005810154610100900460ff161561033b5760405162461bcd60e51b815260206004820152601560248201527414ddd85c08185b1c9958591e481c99599d5b991959605a1b6044820152606401610292565b60018101546001600160a01b031633146103975760405162461bcd60e51b815260206004820152601d60248201527f4f6e6c79207061727469636970616e742063616e2077697468647261770000006044820152606401610292565b428160040154116103d95760405162461bcd60e51b815260206004820152600c60248201526b14ddd85c08195e1c1a5c995960a21b6044820152606401610292565b600381015460408051602081018790520160405160208183030381529060405280519060200120146104405760405162461bcd60e51b815260206004820152601060248201526f496e76616c696420707265696d61676560801b6044820152606401610292565b60058101805460ff191660019081179091556006820185905581015460028201546040516000926001600160a01b031691908381818185875af1925050503d80600081146104aa576040519150601f19603f3d011682016040523d82523d6000602084013e6104af565b606091505b50509050806104f75760405162461bcd60e51b81526020600482015260146024820152732330b4b632b2103a379039b2b7321022ba3432b960611b6044820152606401610292565b857f62388c59a1deeef5c43bd1e453c09d8fd255c31f651700e1f606339958b88b1c8660405161052991815260200190565b60405180910390a2505050505050565b6000818152602081905260409020600281015461058e5760405162461bcd60e51b815260206004820152601360248201527214ddd85c08191bd95cc81b9bdd08195e1a5cdd606a1b6044820152606401610292565b600581015460ff16156105dc5760405162461bcd60e51b815260206004820152601660248201527529bbb0b81030b63932b0b23c903bb4ba34323930bbb760511b6044820152606401610292565b6005810154610100900460ff161561062e5760405162461bcd60e51b815260206004820152601560248201527414ddd85c08185b1c9958591e481c99599d5b991959605a1b6044820152606401610292565b80546001600160a01b031633146106875760405162461bcd60e51b815260206004820152601960248201527f4f6e6c7920696e69746961746f722063616e20726566756e64000000000000006044820152606401610292565b42816004015411156106d25760405162461bcd60e51b8152602060048201526014602482015273151a5b595b1bd8dac81b9bdd08195e1c1a5c995960621b6044820152606401610292565b60058101805461ff001916610100179055805460028201546040516000926001600160a01b031691908381818185875af1925050503d8060008114610733576040519150601f19603f3d011682016040523d82523d6000602084013e610738565b606091505b50509050806107805760405162461bcd60e51b81526020600482015260146024820152732330b4b632b2103a379039b2b7321022ba3432b960611b6044820152606401610292565b60405183907ffe509803c09416b28ff3d8f690c8b0c61462a892c46d5430c8fb20abe472daf090600090a2505050565b60008034116108015760405162461bcd60e51b815260206004820152601d60248201527f416d6f756e74206d7573742062652067726561746572207468616e20300000006044820152606401610292565b6001600160a01b0387166108575760405162461bcd60e51b815260206004820152601b60248201527f496e76616c6964207061727469636970616e74206164647265737300000000006044820152606401610292565b600086900361089b5760405162461bcd60e51b815260206004820152601060248201526f496e76616c696420686173686c6f636b60801b6044820152606401610292565b4285116108ea5760405162461bcd60e51b815260206004820152601e60248201527f54696d656c6f636b206d75737420626520696e207468652066757475726500006044820152606401610292565b6040516bffffffffffffffffffffffff1933606090811b8216602084015289901b166034820152346048820152606881018790526088810186905260a8810185905260c80160408051601f1981840301815291815281516020928301206000818152928390529120600201549091501561099c5760405162461bcd60e51b81526020600482015260136024820152725377617020616c72656164792065786973747360681b6044820152606401610292565b604051806101200160405280336001600160a01b03168152602001886001600160a01b031681526020013481526020018781526020018681526020016000151581526020016000151581526020016000801b81526020018581525060008083815260200190815260200160002060008201518160000160006101000a8154816001600160a01b0302191690836001600160a01b0316021790555060208201518160010160006101000a8154816001600160a01b0302191690836001600160a01b0316021790555060408201518160020155606082015181600301556080820151816004015560a08201518160050160006101000a81548160ff02191690831515021790555060c08201518160050160016101000a81548160ff02191690831515021790555060e082015181600601556101008201518160070155905050866001600160a01b0316336001600160a01b0316827fdc3982de88f0a151e08690c1a9788375bb6fd2d957bee70351243a050dcea696348a8a8a604051610b39949392919093845260208401929092526040830152606082015260800190565b60405180910390a49695505050505050565b60008083601f840112610b5d57600080fd5b50813567ffffffffffffffff811115610b7557600080fd5b602083019150836020828501011115610b8d57600080fd5b9250929050565b60008060008060608587031215610baa57600080fd5b8435935060208501359250604085013567ffffffffffffffff811115610bcf57600080fd5b610bdb87828801610b4b565b95989497509550505050565b600060208284031215610bf957600080fd5b5035919050565b60008060008060008060a08789031215610c1957600080fd5b86356001600160a01b0381168114610c3057600080fd5b9550602087013594506040870135935060608701359250608087013567ffffffffffffffff811115610c6157600080fd5b610c6d89828a01610b4b565b979a969950949750929593949250505056fea2646970667358221220dac315aea0502db6b93dececd41de3ff1a6e50a9d0e6bd7403fd0899fd82d14764736f6c63430008110033",
  "linkReferences": {},
  "deployedLinkReferences": {}
}